:020000040800F2
:10000000C8040020C9000008610400086503000856
:1000100000000000000000000000000000000000E0
:10002000000000000000000000000000E5060008DD
:100030000000000000000000E5040008C9070008F7
:10004000310E000800000000F9000008F900000867
:10005000F9000008F9000008F90000080102000892
:1000600000000000F9000008F9000008F90000088D
:10007000F9000008F9000008F9000008000000007D
:10008000F90000080000000000000000F90000086E
:100090005908000879080008A1080008F9000008BC
:1000A000F9000008F9000008F90000082D0C00080C
:1000B000F90000080348854600F048F8004800476A
:1000C000ED0F0008C80400200C4880F308880C4895
:1000D0000168090E0B4A914205D10B480B4901609A
:1000E0000B480C4901600C4880470C480047FEE76C
:1000F000FEE7FEE7FEE7FEE7FEE70000C80400209B
:10010000040000001F000000181002400100000061
:100110000000014000000000F9070008B5000008D9
:1001200030B50B46014600202022012409E00D468F
:10013000D5409D4205D31D469540491B2546954017
:1001400040191546521E002DF1DC30BD064C01252C
:10015000064E05E0E36807CC2B430C3C984710346F
:10016000B442F7D3FFF7AAFF90100008B0100008C0
:10017000F8B5044640780125204E012807D0022812
:1001800021D0002802D1304600F068FFF8BD207968
:1001900061790002401881B2A379607A1B06C01809
:1001A000E379277A1B043F02DB19C318A078E278B1
:1001B000012803D1114800F02BFD1DE0A078022892
:1001C000E4D17570F8BD2179627909028918A379A3
:1001D000627A1B06D218E379277A1B043F02E07883
:1001E000DB19D21889B2002800D15242A078012828
:1001F000E4D1024800F03EFF7570DFE75C000020AC
:100200007047000010B5024800F0E2F810BD000091
:100210005C000020FEB505204003009001246846E4
:10022000047100258571C47144716946264800F047
:100230004DF806200090684604718571C4714471C0
:1002400009206946C00600F041F828200090684661
:1002500005718571C471447109206946C00600F0BA
:1002600035F8092005220621C00600F067F80920AC
:1002700005220721C00600F061F8C0200090022688
:10028000684606718571C671032747710920694662
:10029000C00600F01BF809210022C80600F04EF845
:1002A000092000220A21C00600F048F878020090D8
:1002B000684606718571C471477109206946C00698
:1002C00000F004F8FEBD000000080048F0B5002270
:1002D000012423460D6893401D409D422AD10D798B
:1002E000012D01D0022D12D1876855000326AE40A2
:1002F000B74387604E79AE4085682E438660858817
:100300009D43858085888B7993401D438580066851
:1003100055000323AB409E4306600E790768AE404C
:100320003E430660C6689E43C660CB79AB40C56855
:100330002B43C360521C102ACBD3F0BD4B07DB0EFE
:100340009A40C90810B589000818016A0F249C401A
:10035000A1430162016A1143016210BD018570472A
:1003600081617047FEE7000070B50E4800F020F88C
:100370000C48012101700924E4060821C46241856A
:100380000225058508490163343000F011F805485D
:10039000202134300570C462418504210185034960
:1003A000016370BD5C000020004401400048014032
:1003B00010B500214170817041600172C1604161DE
:1003C0008161C16101624162006B00F033FB10BDCD
:1003D00070B50446407800280FD0616A206A8142D7
:1003E0000CD100206062206260700021206B00F060
:1003F00021FB16A0616900F01DFD70BD0121206B7D
:1004000000F018FB154DE0684119206B00F0BAFBB5
:10041000E068291A206B00F0B3FB207A022802D092
:10042000002807D00DE0218DE06AFFF799FF606991
:10043000401C05E0218DE06AFFF790FF6069401ED7
:100440006061606A401C606270BD00006F7665721A
:100450002C616E676C653A25640A0000204E00002E
:10046000704738B51B2168460170012444708470C0
:1004700000F010F81521684601700225457084705F
:1004800000F008F81621684601704570847000F08D
:1004900001F838BD30B5837801210278002B15D0E2
:1004A00094080E4BA400E41823689207D50EFF228F
:1004B000AA40934342789207120EAA401A43226040
:1004C0000078C006C00E8140054804E0D006C00E8A
:1004D000814003488030016030BD000000E400E04E
:1004E00000E100E070470000044A0029516901D092
:1004F000014300E081435161704700000010024059
:10050000044A0029D16901D0014300E08143D1614F
:100510007047000000100240044A0029916901D090
:10052000014300E0814391617047000000100240E8
:10053000F8B5564D0446686800210C22544E104010
:1005400005D0042803D0082803D00C281AD0266030
:100550001AE06968686803228902D2030F0F10400D
:10056000BF1C00280AD0E86A0107090F3046491C61
:10057000FFF7D6FD78430146216005E0454839463E
:100580004143F9E7444820606868444F0006000F83
:100590003B5C20680246DA4062606B685B055B0F7B
:1005A000FB5CDA40A2602B6BDB0501D43C4B05E021
:1005B0006B685B0401D4530800E09308E3602B6B85
:1005C0005F06384B03D4374F1237276100E02361B1
:1005D0002F6BFF0601D4666100E060612F6BBF07DF
:1005E0000ED02F6BBF07BF0F012F0BD02F6BBF0794
:1005F000BF0F022F08D02F6BFF43BF0706D006E0C6
:10060000A26104E0A06102E0A36100E0A6612F6B9B
:10061000BF03BF0F0FD02F6BBF03BF0F012F0CD035
:100620002F6BBF03BF0F022F09D02F6BBF03BF0F6C
:10063000032F06D006E0E26104E0E06102E0E3613E
:1006400000E0E6612F6B3F03BF0F0FD02A6B120350
:10065000920F012A0CD0286B0003800F022809D0CA
:10066000286B0003800F032806D006E0226204E016
:10067000206202E0236200E02662286B000602D4BA
:1006800005486062F8BD6162F8BD000000100240DC
:1006900000127A0000093D00006CDC02130000200B
:1006A000809FD5000080000010B501210A48FFF7A7
:1006B00033FF01210948FFF723FF01210848FFF715
:1006C00013FF00F05DF800F0FFFAFFF7CAFE00F03C
:1006D00011F9FFF79FFD10BD014A07000209200034
:1006E00001004E00704700001CB500212248019116
:1006F0000091026801231B041A4302605B0005227B
:10070000120304681C400094019C641C0194009C2A
:10071000002C02D1019C9442F3D10268920328D5A7
:1007200001210091154A1121116041684160416821
:10073000416041687F22D2039143416041681122A8
:100740001204114341600168012212061143016045
:1007500001688901FCD541688908890041604168C8
:1007600002221143416041680907890F0229FAD129
:100770001CBD00911CBD0000001002400020024082
:1007800010B50D480B490068FFF7CAFC0B49401E25
:1007900088420DD80A4948610A480722C3691B02EA
:1007A0001B0A4C042343C361002088610A6110BD09
:1007B000FEE70000400D030024000020FFFFFF00C3
:1007C00000E000E004ED00E010B5094909480B68BD
:1007D00004680022A34200D0026003681024E342B0
:1007E00000D302600268521C02600068086010BDFD
:1007F000040000200000002010B514480168012208
:10080000114301604168124A114041600168114A78
:100810001140016001680122920491430160416826
:100820003F22120491434160C16A09090901C16272
:10083000016BFF22543291430163416B4908490027
:10084000416300218160FFF74FFF10BD001002409F
:100850000CB8FF08FFFFF6FE10B5064C022120463B
:1008600000F0F4F8002803D00221204600F035F80B
:1008700010BD00000040014010B5074C0221204689
:1008800000F0E4F8002806D00221204600F025F808
:100890000248FFF79DFD10BD004401405C000020B0
:1008A00010B5074C0221204600F0D0F8002806D0F1
:1008B0000221204600F011F80248FFF789FD10BD23
:1008C000004801409000002080220029018801D0CA
:1008D000114300E0914301807047C9430182704792
:1008E0000029018802D00122114301E04908490092
:1008F00001807047F0B589B005A800F07FF9454840
:100900000690F0216846818200248483424DC4828F
:1009100005A9284600F038F901212846FFF7E0FF35
:1009200005A800F06BF968468482C4823B480690B3
:1009300068463B4D848305A9284600F025F9394EC9
:1009400005A9304600F020F9374F05A9384600F0D8
:100950001BF905A9354800F017F9602168460180A8
:1009600001214180848169463046029400F082F87A
:1009700069463046029400F0BBF869462846029466
:1009800000F078F869463846029400F073F869463A
:100990002648029400F06EF801212846FFF794FFE4
:1009A00001213046FFF790FF01213846FFF78CFF09
:1009B00001211E48FFF788FF01220221384600F07E
:1009C00051F801220221194800F04CF8184C304629
:1009D000214600F0D5F82146284600F0D1F82146FE
:1009E000384600F0CDF82146104800F0C9F8012142
:1009F0002846FFF775FF01213046FFF771FF0121FF
:100A00003846FFF76DFF01210848FFF769FF09B07D
:100A1000F0BD0000FFFF0000002C0140409C0000E2
:100A200000200040004001400044014000480140D7
:100A3000204E000040300029818803D00122D203DB
:100A4000114301E04904490C818070470246138A32
:100A5000002092890B400A40002B02D0002A00D0CF
:100A600001207047002A828901D00A4300E08A43AE
:100A70008281704730B5028C520852000284038C88
:100A80008288048B7025AC43A4080D88A4002543FC
:100A90000224A3438C891C434B8823430F4CA04260
:100AA00008D00F4CA04205D00E4CA04202D00E4CF4
:100AB000A0420DD10824A343CC891C4304239C43AA
:100AC0008B882343094C22400C8A14434A8A2243D0
:100AD0008280058389684163038430BD002C014016
:100AE000004001400044014000480140FFFC00007C
:100AF00070B5028C10239A430284048C8288038B85
:100B00001A4D2B400D782D062D0C1D4320239C43A0
:100B10008B891B051E0C4B8826431B051B0C144C94
:100B20003343A04202D0134EB04219D1124E32408C
:100B30000E8AB604360C3243A04211D18024A3435E
:100B4000CC892405240C1C4340239C438B881B0523
:100B50001B0C2343094C22404C8AA404240C22433E
:100B60008280058389688163038470BDFF8C0000E7
:100B7000002C014000400140FFFB0000FFF7000097
:100B8000416370474162704710B50288144B984228
:100B900006D00124A407A04202D0124CA04203D1E7
:100BA0007024A2434C8822430F4CA04203D00F4C28
:100BB00022400C89224302804A68C2620A88028568
:100BC000984208D00A4A904205D00A4A904202D080
:100BD000094A904201D1897A01860121818210BDA2
:100BE000002C01400004004000100040FFFC000009
:100BF0000040014000440140004801400021C94339
:100C000041600021018001814180817270470000B4
:100C100010B5054CA14200D92146C16002720021E5
:100C20000362416210BD0000204E000070B51D4CF3
:100C30001B49204600F06FF800282ED020212046C6
:100C400000F036F8204600F0EBF8C0B20121002594
:100C5000154CFD2805D0F82809D0A278012A02D029
:100C600016E0A17065702278012A07D009E060784B
:100C70000D2810D10D48FFF77BFA0CE0F02225700B
:100C80001043FE280AD0094A61785054491C61700B
:100C900060780E2801D1A570657070BD2170F7E7EE
:100CA0000501050000380140100000203C00002034
:100CB000016270470029016802D00122114301E05E
:100CC000490849000160704710B586B04B20C0014B
:100CD0000090002001900290039005900C20084C99
:100CE00004906946204600F047F801220549204655
:100CF00000F02DF801212046FFF7DCFF06B010BD03
:100D000000380140050105000246D26900200A4270
:100D100000D00120704730B50A04130E012214469A
:100D200000258C40012B0ED0022B0ED08368090CBD
:100D30002340C0698A401040002B02D0002800D018
:100D40000125284630BD0368F1E74368EFE710B599
:100D50000B041C0E01238B40022C02D0032C02D06A
:100D600002E0001D00E008300168002A01D01943AC
:100D700000E09943016010BD30B5044600688BB0B7
:100D80000D46400840002060606803210903884345
:100D9000A9680143616020681C49EA6808406968E5
:100DA00011432A69024311432160A068032109020B
:100DB000884369690143A1606846FFF7B9FB14489D
:100DC000844201D106980AE01248844201D1079872
:100DD00005E01148844201D1089800E0029821689A
:100DE0000904296800D54000FFF79AF92A685208DB
:100DF0008A4200D8401C2168090404D50107074A2B
:100E0000490F10400843A0810BB030BDF3E9FFFF4C
:100E1000003801400044004000480040F0FF00005E
:100E2000808CC005C00D7047C905C90D018570478C
:100E3000704700000FB410B503A9044B044A029890
:100E400000F018F810BC08BC04B01847C50F000823
:100E50003800002002E008C8121F08C1002AFAD199
:100E600070477047002001E001C1121F002AFBD12A
:100E700070470000FFB58DB00446002506E0252828
:100E80000AD0109A0F999047641C6D1C2078002896
:100E9000F5D1284611B0F0BD00270121484A00973E
:100EA00000E00743641C23780846203B984010422A
:100EB000F7D120782E2817D1042007436078641CCE
:100EC0002A280CD10E98641C02C800910E900BE0E9
:100ED00000990A22514330394018641C0090207850
:100EE000014630390929F3D920780028D1D0642867
:100EF00008D0692806D075281ED0109A0F999047FF
:100F00006D1C5BE00A200E99019001C90E9100282A
:100F100002DA40422D2102E0390504D52B216A4630
:100F20001172012103E0F90704D02021F7E70BAE8D
:100F30000B910DE00021FAE70A200E99019001C9FA
:100F40000E91F7E70199FFF7EBF83031761E31701B
:100F50000028F7D103A8801B20300190780701D525
:100F6000009801E0012000900199884201DD401ABB
:100F700000E000200027009006E002A8109AC05D63
:100F80000F9990476D1C7F1C0B988742F5DB04E09E
:100F9000109A30200F9990476D1C0099481E0090C0
:100FA0000029F5DC05E03078109A761C0F999047FF
:100FB0006D1C0199481E01900029F4DC641C65E752
:100FC0000928010070B5084C054640212046FFF76E
:100FD0006FFEA9B22046FFF727FF40212046FFF70A
:100FE00093FE0028F9D070BD00380140FFF75CFB8C
:100FF000FFF7BAF9002016497D22D2004870CA6076
:1010000008621549134A05C10924E4060221204655
:10101000FFF7A6F904212046FFF7A2F94021204658
:10102000FFF79EF980212046FFF79AF9022120461A
:10103000FFF794F904212046FFF790F9402120465C
:10104000FFF78CF980212046FFF788F9DEE70000E2
:101050005C000020050200080800002010B50021F7
:10106000C16001728170016241624161C161FFF73B
:101070009FF910BD10B5C26143690024D31A002B3B
:1010800001DD022400E05B422246FFF7C1FD10BDF6
:10109000B0100008000000203C000000540E0008C2
:1010A000EC1000083C0000208C040000640E0008D6
:1010B0000000000000000000000000000000000030
:1010C0000000000000000001020304010203040606
:1010D00007080900006CDC020000000000000000AE
:0C10E000010203040607080900000000DC
:04000005080000B53A
:00000001FF
